{
  "contractName": "Tecoupons",
  "abi": [
    {
      "inputs": [],
      "stateMutability": "nonpayable",
      "type": "constructor"
    },
    {
      "inputs": [
        {
          "internalType": "address",
          "name": "have",
          "type": "address"
        },
        {
          "internalType": "address",
          "name": "want",
          "type": "address"
        }
      ],
      "name": "OnlyCoordinatorCanFulfill",
      "type": "error"
    },
    {
      "anonymous": false,
      "inputs": [
        {
          "indexed": true,
          "internalType": "address",
          "name": "owner",
          "type": "address"
        },
        {
          "indexed": true,
          "internalType": "address",
          "name": "approved",
          "type": "address"
        },
        {
          "indexed": true,
          "internalType": "uint256",
          "name": "tokenId",
          "type": "uint256"
        }
      ],
      "name": "Approval",
      "type": "event"
    },
    {
      "anonymous": false,
      "inputs": [
        {
          "indexed": true,
          "internalType": "address",
          "name": "owner",
          "type": "address"
        },
        {
          "indexed": true,
          "internalType": "address",
          "name": "operator",
          "type": "address"
        },
        {
          "indexed": false,
          "internalType": "bool",
          "name": "approved",
          "type": "bool"
        }
      ],
      "name": "ApprovalForAll",
      "type": "event"
    },
    {
      "anonymous": false,
      "inputs": [
        {
          "indexed": true,
          "internalType": "address",
          "name": "_from",
          "type": "address"
        },
        {
          "indexed": false,
          "internalType": "uint256",
          "name": "tokenId",
          "type": "uint256"
        }
      ],
      "name": "BurnCoupon",
      "type": "event"
    },
    {
      "anonymous": false,
      "inputs": [
        {
          "indexed": true,
          "internalType": "address",
          "name": "_from",
          "type": "address"
        },
        {
          "indexed": false,
          "internalType": "uint256",
          "name": "tokenId",
          "type": "uint256"
        }
      ],
      "name": "CreateCoupon",
      "type": "event"
    },
    {
      "anonymous": false,
      "inputs": [
        {
          "indexed": true,
          "internalType": "address",
          "name": "previousOwner",
          "type": "address"
        },
        {
          "indexed": true,
          "internalType": "address",
          "name": "newOwner",
          "type": "address"
        }
      ],
      "name": "OwnershipTransferred",
      "type": "event"
    },
    {
      "anonymous": false,
      "inputs": [
        {
          "indexed": true,
          "internalType": "address",
          "name": "_from",
          "type": "address"
        },
        {
          "indexed": false,
          "internalType": "uint256",
          "name": "tokenId",
          "type": "uint256"
        }
      ],
      "name": "RedeemCoupon",
      "type": "event"
    },
    {
      "anonymous": false,
      "inputs": [
        {
          "indexed": true,
          "internalType": "address",
          "name": "from",
          "type": "address"
        },
        {
          "indexed": true,
          "internalType": "address",
          "name": "to",
          "type": "address"
        },
        {
          "indexed": true,
          "internalType": "uint256",
          "name": "tokenId",
          "type": "uint256"
        }
      ],
      "name": "Transfer",
      "type": "event"
    },
    {
      "anonymous": false,
      "inputs": [
        {
          "indexed": true,
          "internalType": "address",
          "name": "_from",
          "type": "address"
        },
        {
          "indexed": true,
          "internalType": "address",
          "name": "_to",
          "type": "address"
        },
        {
          "indexed": false,
          "internalType": "uint256",
          "name": "tokenId",
          "type": "uint256"
        }
      ],
      "name": "TransferCoupon",
      "type": "event"
    },
    {
      "inputs": [
        {
          "internalType": "address",
          "name": "to",
          "type": "address"
        },
        {
          "internalType": "uint256",
          "name": "tokenId",
          "type": "uint256"
        }
      ],
      "name": "approve",
      "outputs": [],
      "stateMutability": "nonpayable",
      "type": "function"
    },
    {
      "inputs": [
        {
          "internalType": "address",
          "name": "owner",
          "type": "address"
        }
      ],
      "name": "balanceOf",
      "outputs": [
        {
          "internalType": "uint256",
          "name": "",
          "type": "uint256"
        }
      ],
      "stateMutability": "view",
      "type": "function"
    },
    {
      "inputs": [
        {
          "internalType": "uint256",
          "name": "tokenId",
          "type": "uint256"
        }
      ],
      "name": "getApproved",
      "outputs": [
        {
          "internalType": "address",
          "name": "",
          "type": "address"
        }
      ],
      "stateMutability": "view",
      "type": "function"
    },
    {
      "inputs": [
        {
          "internalType": "address",
          "name": "owner",
          "type": "address"
        },
        {
          "internalType": "address",
          "name": "operator",
          "type": "address"
        }
      ],
      "name": "isApprovedForAll",
      "outputs": [
        {
          "internalType": "bool",
          "name": "",
          "type": "bool"
        }
      ],
      "stateMutability": "view",
      "type": "function"
    },
    {
      "inputs": [],
      "name": "name",
      "outputs": [
        {
          "internalType": "string",
          "name": "",
          "type": "string"
        }
      ],
      "stateMutability": "view",
      "type": "function"
    },
    {
      "inputs": [],
      "name": "owner",
      "outputs": [
        {
          "internalType": "address",
          "name": "",
          "type": "address"
        }
      ],
      "stateMutability": "view",
      "type": "function"
    },
    {
      "inputs": [
        {
          "internalType": "uint256",
          "name": "tokenId",
          "type": "uint256"
        }
      ],
      "name": "ownerOf",
      "outputs": [
        {
          "internalType": "address",
          "name": "",
          "type": "address"
        }
      ],
      "stateMutability": "view",
      "type": "function"
    },
    {
      "inputs": [
        {
          "internalType": "uint256",
          "name": "requestId",
          "type": "uint256"
        },
        {
          "internalType": "uint256[]",
          "name": "randomWords",
          "type": "uint256[]"
        }
      ],
      "name": "rawFulfillRandomWords",
      "outputs": [],
      "stateMutability": "nonpayable",
      "type": "function"
    },
    {
      "inputs": [],
      "name": "renounceOwnership",
      "outputs": [],
      "stateMutability": "nonpayable",
      "type": "function"
    },
    {
      "inputs": [],
      "name": "requestRandomWords",
      "outputs": [],
      "stateMutability": "nonpayable",
      "type": "function"
    },
    {
      "inputs": [
        {
          "internalType": "uint256",
          "name": "",
          "type": "uint256"
        }
      ],
      "name": "s_randomWords",
      "outputs": [
        {
          "internalType": "uint256",
          "name": "",
          "type": "uint256"
        }
      ],
      "stateMutability": "view",
      "type": "function"
    },
    {
      "inputs": [],
      "name": "s_requestId",
      "outputs": [
        {
          "internalType": "uint256",
          "name": "",
          "type": "uint256"
        }
      ],
      "stateMutability": "view",
      "type": "function"
    },
    {
      "inputs": [
        {
          "internalType": "address",
          "name": "from",
          "type": "address"
        },
        {
          "internalType": "address",
          "name": "to",
          "type": "address"
        },
        {
          "internalType": "uint256",
          "name": "tokenId",
          "type": "uint256"
        }
      ],
      "name": "safeTransferFrom",
      "outputs": [],
      "stateMutability": "nonpayable",
      "type": "function"
    },
    {
      "inputs": [
        {
          "internalType": "address",
          "name": "from",
          "type": "address"
        },
        {
          "internalType": "address",
          "name": "to",
          "type": "address"
        },
        {
          "internalType": "uint256",
          "name": "tokenId",
          "type": "uint256"
        },
        {
          "internalType": "bytes",
          "name": "_data",
          "type": "bytes"
        }
      ],
      "name": "safeTransferFrom",
      "outputs": [],
      "stateMutability": "nonpayable",
      "type": "function"
    },
    {
      "inputs": [
        {
          "internalType": "address",
          "name": "operator",
          "type": "address"
        },
        {
          "internalType": "bool",
          "name": "approved",
          "type": "bool"
        }
      ],
      "name": "setApprovalForAll",
      "outputs": [],
      "stateMutability": "nonpayable",
      "type": "function"
    },
    {
      "inputs": [
        {
          "internalType": "bytes4",
          "name": "interfaceId",
          "type": "bytes4"
        }
      ],
      "name": "supportsInterface",
      "outputs": [
        {
          "internalType": "bool",
          "name": "",
          "type": "bool"
        }
      ],
      "stateMutability": "view",
      "type": "function"
    },
    {
      "inputs": [],
      "name": "symbol",
      "outputs": [
        {
          "internalType": "string",
          "name": "",
          "type": "string"
        }
      ],
      "stateMutability": "view",
      "type": "function"
    },
    {
      "inputs": [
        {
          "internalType": "uint256",
          "name": "tokenId",
          "type": "uint256"
        }
      ],
      "name": "tokenURI",
      "outputs": [
        {
          "internalType": "string",
          "name": "",
          "type": "string"
        }
      ],
      "stateMutability": "view",
      "type": "function"
    },
    {
      "inputs": [
        {
          "internalType": "address",
          "name": "from",
          "type": "address"
        },
        {
          "internalType": "address",
          "name": "to",
          "type": "address"
        },
        {
          "internalType": "uint256",
          "name": "tokenId",
          "type": "uint256"
        }
      ],
      "name": "transferFrom",
      "outputs": [],
      "stateMutability": "nonpayable",
      "type": "function"
    },
    {
      "inputs": [
        {
          "internalType": "address",
          "name": "newOwner",
          "type": "address"
        }
      ],
      "name": "transferOwnership",
      "outputs": [],
      "stateMutability": "nonpayable",
      "type": "function"
    },
    {
      "inputs": [
        {
          "internalType": "address",
          "name": "_to",
          "type": "address"
        },
        {
          "internalType": "string",
          "name": "tokenURI",
          "type": "string"
        }
      ],
      "name": "createCoupon",
      "outputs": [
        {
          "internalType": "uint256",
          "name": "",
          "type": "uint256"
        }
      ],
      "stateMutability": "nonpayable",
      "type": "function"
    },
    {
      "inputs": [
        {
          "internalType": "address payable",
          "name": "_to",
          "type": "address"
        },
        {
          "internalType": "uint256",
          "name": "tokenId",
          "type": "uint256"
        }
      ],
      "name": "transferCoupon",
      "outputs": [],
      "stateMutability": "nonpayable",
      "type": "function"
    },
    {
      "inputs": [
        {
          "internalType": "uint256",
          "name": "tokenId",
          "type": "uint256"
        }
      ],
      "name": "redeemCoupon",
      "outputs": [],
      "stateMutability": "nonpayable",
      "type": "function"
    },
    {
      "inputs": [
        {
          "internalType": "uint256",
          "name": "tokenId",
          "type": "uint256"
        }
      ],
      "name": "getCoupon",
      "outputs": [
        {
          "internalType": "string",
          "name": "",
          "type": "string"
        }
      ],
      "stateMutability": "view",
      "type": "function"
    }
  ],
  "bytecode": "0x60a0604052611a2d600860146101000a81548167ffffffffffffffff021916908367ffffffffffffffff160217905550736168499c0cffcacd319c818142124b7a15e857ab600960006101000a81548173ffffffffffffffffffffffffffffffffffffffff021916908373ffffffffffffffffffffffffffffffffffffffff1602179055507fd89b2bf150e3b9e13446986e571fb9cab24b13cea0a43ea20a6049a85cc807cc60001b600a55620186a0600b60006101000a81548163ffffffff021916908363ffffffff1602179055506003600b60046101000a81548161ffff021916908361ffff1602179055506002600b60066101000a81548163ffffffff021916908363ffffffff16021790555060006012553480156200012157600080fd5b50600960009054906101000a900473ffffffffffffffffffffffffffffffffffffffff166040518060400160405280600881526020017f5465636f75706f6e0000000000000000000000000000000000000000000000008152506040518060400160405280600381526020017f5445430000000000000000000000000000000000000000000000000000000000815250620001d1620001c5620002e760201b60201c565b620002ef60201b60201c565b8160019080519060200190620001e9929190620003b3565b50806002908051906020019062000202929190620003b3565b5050508073ffffffffffffffffffffffffffffffffffffffff1660808173ffffffffffffffffffffffffffffffffffffffff1660601b8152505050600960009054906101000a900473ffffffffffffffffffffffffffffffffffffffff16600860006101000a81548173ffffffffffffffffffffffffffffffffffffffff021916908373ffffffffffffffffffffffffffffffffffffffff16021790555033600e60006101000a81548173ffffffffffffffffffffffffffffffffffffffff021916908373ffffffffffffffffffffffffffffffffffffffff160217905550620004c8565b600033905090565b60008060009054906101000a900473ffffffffffffffffffffffffffffffffffffffff169050816000806101000a81548173ffffffffffffffffffffffffffffffffffffffff021916908373ffffffffffffffffffffffffffffffffffffffff1602179055508173ffffffffffffffffffffffffffffffffffffffff168173ffffffffffffffffffffffffffffffffffffffff167f8be0079c531659141344cd1fd0a4f28419497f9722a3daafe3b4186f6b6457e060405160405180910390a35050565b828054620003c19062000463565b90600052602060002090601f016020900481019282620003e5576000855562000431565b82601f106200040057805160ff191683800117855562000431565b8280016001018555821562000431579182015b828111156200043057825182559160200191906001019062000413565b5b50905062000440919062000444565b5090565b5b808211156200045f57600081600090555060010162000445565b5090565b600060028204905060018216806200047c57607f821691505b6020821081141562000493576200049262000499565b5b50919050565b7f4e487b7100000000000000000000000000000000000000000000000000000000600052602260045260246000fd5b60805160601c613fa3620004ee600039600081816107a801526107fc0152613fa36000f3fe608060405234801561001057600080fd5b50600436106101585760003560e01c8063936e3169116100c3578063c87b56dd1161007c578063c87b56dd146103c1578063e0c86289146103f1578063e89e106a146103fb578063e985e9c514610419578063f2fde38b14610449578063f6eaffc81461046557610158565b8063936e3169146102ef57806395d89b411461031f5780639a93aec01461033d578063a22cb46514610359578063a943f1de14610375578063b88d4fde146103a557610158565b806342842e0e1161011557806342842e0e1461022f5780634ffab34b1461024b5780636352211e1461026757806370a0823114610297578063715018a6146102c75780638da5cb5b146102d157610158565b806301ffc9a71461015d57806306fdde031461018d578063081812fc146101ab578063095ea7b3146101db5780631fe543e3146101f757806323b872dd14610213575b600080fd5b61017760048036038101906101729190612b0a565b610495565b60405161018491906130dc565b60405180910390f35b610195610577565b6040516101a2919061314a565b60405180910390f35b6101c560048036038101906101c09190612b64565b610609565b6040516101d2919061304c565b60405180910390f35b6101f560048036038101906101f09190612aca565b61068e565b005b610211600480360381019061020c9190612bbe565b6107a6565b005b61022d60048036038101906102289190612958565b610866565b005b61024960048036038101906102449190612958565b6108c6565b005b61026560048036038101906102609190612b64565b6108e6565b005b610281600480360381019061027c9190612b64565b610a22565b60405161028e919061304c565b60405180910390f35b6102b160048036038101906102ac91906128ab565b610ad4565b6040516102be919061342c565b60405180910390f35b6102cf610b8c565b005b6102d9610c14565b6040516102e6919061304c565b60405180910390f35b61030960048036038101906103049190612b64565b610c3d565b604051610316919061314a565b60405180910390f35b610327610d88565b604051610334919061314a565b60405180910390f35b610357600480360381019061035291906128d8565b610e1a565b005b610373600480360381019061036e9190612a2e565b610f37565b005b61038f600480360381019061038a9190612a6e565b610f4d565b60405161039c919061342c565b60405180910390f35b6103bf60048036038101906103ba91906129ab565b6111fc565b005b6103db60048036038101906103d69190612b64565b61125e565b6040516103e8919061314a565b60405180910390f35b6103f96113b0565b005b610403611513565b604051610410919061342c565b60405180910390f35b610433600480360381019061042e9190612918565b611519565b60405161044091906130dc565b60405180910390f35b610463600480360381019061045e91906128ab565b6115ad565b005b61047f600480360381019061047a9190612b64565b6116a5565b60405161048c919061342c565b60405180910390f35b60007f80ac58cd000000000000000000000000000000000000000000000000000000007bffffffffffffffffffffffffffffffffffffffffffffffffffffffff1916827bffffffffffffffffffffffffffffffffffffffffffffffffffffffff1916148061056057507f5b5e139f000000000000000000000000000000000000000000000000000000007bffffffffffffffffffffffffffffffffffffffffffffffffffffffff1916827bffffffffffffffffffffffffffffffffffffffffffffffffffffffff1916145b80610570575061056f826116c9565b5b9050919050565b606060018054610586906136fc565b80601f01602080910402602001604051908101604052809291908181526020018280546105b2906136fc565b80156105ff5780601f106105d4576101008083540402835291602001916105ff565b820191906000526020600020905b8154815290600101906020018083116105e257829003601f168201915b5050505050905090565b600061061482611733565b610653576040517f08c379a000000000000000000000000000000000000000000000000000000000815260040161064a9061334c565b60405180910390fd5b6005600083815260200190815260200160002060009054906101000a900473ffffffffffffffffffffffffffffffffffffffff169050919050565b600061069982610a22565b90508073ffffffffffffffffffffffffffffffffffffffff168373ffffffffffffffffffffffffffffffffffffffff16141561070a576040517f08c379a0000000000000000000000000000000000000000000000000000000008152600401610701906133cc565b60405180910390fd5b8073ffffffffffffffffffffffffffffffffffffffff1661072961179f565b73ffffffffffffffffffffffffffffffffffffffff16148061075857506107578161075261179f565b611519565b5b610797576040517f08c379a000000000000000000000000000000000000000000000000000000000815260040161078e9061328c565b60405180910390fd5b6107a183836117a7565b505050565b7f000000000000000000000000000000000000000000000000000000000000000073ffffffffffffffffffffffffffffffffffffffff163373ffffffffffffffffffffffffffffffffffffffff161461085857337f00000000000000000000000000000000000000000000000000000000000000006040517f1cf993f400000000000000000000000000000000000000000000000000000000815260040161084f929190613067565b60405180910390fd5b6108628282611860565b5050565b61087761087161179f565b8261187b565b6108b6576040517f08c379a00000000000000000000000000000000000000000000000000000000081526004016108ad906133ec565b60405180910390fd5b6108c1838383611959565b505050565b6108e1838383604051806020016040528060008152506111fc565b505050565b806010600082815260200190815260200160002060000160019054906101000a900460ff161561094b576040517f08c379a00000000000000000000000000000000000000000000000000000000081526004016109429061338c565b60405180910390fd5b61095361179f565b73ffffffffffffffffffffffffffffffffffffffff16610971610c14565b73ffffffffffffffffffffffffffffffffffffffff16146109c7576040517f08c379a00000000000000000000000000000000000000000000000000000000081526004016109be9061336c565b60405180910390fd5b3373ffffffffffffffffffffffffffffffffffffffff167f9a940aaab84dc8258fb3023713f68703844b7345f61571cd68bf1b8b3d38d26683604051610a0d919061342c565b60405180910390a2610a1e82611bc0565b5050565b6000806003600084815260200190815260200160002060009054906101000a900473ffffffffffffffffffffffffffffffffffffffff169050600073ffffffffffffffffffffffffffffffffffffffff168173ffffffffffffffffffffffffffffffffffffffff161415610acb576040517f08c379a0000000000000000000000000000000000000000000000000000000008152600401610ac2906132cc565b60405180910390fd5b80915050919050565b60008073ffffffffffffffffffffffffffffffffffffffff168273ffffffffffffffffffffffffffffffffffffffff161415610b45576040517f08c379a0000000000000000000000000000000000000000000000000000000008152600401610b3c906132ac565b60405180910390fd5b600460008373ffffffffffffffffffffffffffffffffffffffff1673ffffffffffffffffffffffffffffffffffffffff168152602001908152602001600020549050919050565b610b9461179f565b73ffffffffffffffffffffffffffffffffffffffff16610bb2610c14565b73ffffffffffffffffffffffffffffffffffffffff1614610c08576040517f08c379a0000000000000000000000000000000000000000000000000000000008152600401610bff9061336c565b60405180910390fd5b610c126000611cc8565b565b60008060009054906101000a900473ffffffffffffffffffffffffffffffffffffffff16905090565b606081600f600082815260200190815260200160002060009054906101000a900473ffffffffffffffffffffffffffffffffffffffff1673ffffffffffffffffffffffffffffffffffffffff163373ffffffffffffffffffffffffffffffffffffffff1614610ce1576040517f08c379a0000000000000000000000000000000000000000000000000000000008152600401610cd89061320c565b60405180910390fd5b601060008481526020019081526020016000206002018054610d02906136fc565b80601f0160208091040260200160405190810160405280929190818152602001828054610d2e906136fc565b8015610d7b5780601f10610d5057610100808354040283529160200191610d7b565b820191906000526020600020905b815481529060010190602001808311610d5e57829003601f168201915b5050505050915050919050565b606060028054610d97906136fc565b80601f0160208091040260200160405190810160405280929190818152602001828054610dc3906136fc565b8015610e105780601f10610de557610100808354040283529160200191610e10565b820191906000526020600020905b815481529060010190602001808311610df357829003601f168201915b5050505050905090565b8173ffffffffffffffffffffffffffffffffffffffff163373ffffffffffffffffffffffffffffffffffffffff161415610e89576040517f08c379a0000000000000000000000000000000000000000000000000000000008152600401610e809061316c565b60405180910390fd5b600073ffffffffffffffffffffffffffffffffffffffff163373ffffffffffffffffffffffffffffffffffffffff161415610ec357600080fd5b610ece3383836108c6565b8173ffffffffffffffffffffffffffffffffffffffff163373ffffffffffffffffffffffffffffffffffffffff167fdf24bc5628ca3d1b1d2a486f89adc3a2b41d8d57f028f85b7e03dc3d9874781683604051610f2b919061342c565b60405180910390a35050565b610f49610f4261179f565b8383611d8c565b5050565b6000610f5761179f565b73ffffffffffffffffffffffffffffffffffffffff16610f75610c14565b73ffffffffffffffffffffffffffffffffffffffff1614610fcb576040517f08c379a0000000000000000000000000000000000000000000000000000000008152600401610fc29061336c565b60405180910390fd5b6012546103e71415611012576040517f08c379a00000000000000000000000000000000000000000000000000000000081526004016110099061340c565b60405180910390fd5b61101c6011611ef9565b6012600081548092919061102f9061375f565b919050555060006110406011611f0f565b905061104c8482611f1d565b61105681846120f7565b8373ffffffffffffffffffffffffffffffffffffffff167f8e446bd4dc51dc76694cba0c04483ab4fcdf50daa332deccb038f66af8a4afec8260405161109c919061342c565b60405180910390a2600084600f600084815260200190815260200160002060006101000a81548173ffffffffffffffffffffffffffffffffffffffff021916908373ffffffffffffffffffffffffffffffffffffffff16021790555060405180608001604052806000600281111561111757611116613837565b5b81526020016000151581526020018381526020016040518060400160405280600c81526020017f74657374696e675f636f646500000000000000000000000000000000000000008152508152506010600084815260200190815260200160002060008201518160000160006101000a81548160ff021916908360028111156111a2576111a1613837565b5b021790555060208201518160000160016101000a81548160ff0219169083151502179055506040820151816001015560608201518160020190805190602001906111ed9291906125aa565b50905050819250505092915050565b61120d61120761179f565b8361187b565b61124c576040517f08c379a0000000000000000000000000000000000000000000000000000000008152600401611243906133ec565b60405180910390fd5b6112588484848461216b565b50505050565b606061126982611733565b6112a8576040517f08c379a000000000000000000000000000000000000000000000000000000000815260040161129f9061332c565b60405180910390fd5b60006007600084815260200190815260200160002080546112c8906136fc565b80601f01602080910402602001604051908101604052809291908181526020018280546112f4906136fc565b80156113415780601f1061131657610100808354040283529160200191611341565b820191906000526020600020905b81548152906001019060200180831161132457829003601f168201915b5050505050905060006113526121c7565b90506000815114156113685781925050506113ab565b60008251111561139d578082604051602001611385929190613028565b604051602081830303815290604052925050506113ab565b6113a6846121de565b925050505b919050565b600e60009054906101000a900473ffffffffffffffffffffffffffffffffffffffff1673ffffffffffffffffffffffffffffffffffffffff163373ffffffffffffffffffffffffffffffffffffffff161461140a57600080fd5b600860009054906101000a900473ffffffffffffffffffffffffffffffffffffffff1673ffffffffffffffffffffffffffffffffffffffff16635d3b1d30600a54600860149054906101000a900467ffffffffffffffff16600b60049054906101000a900461ffff16600b60009054906101000a900463ffffffff16600b60069054906101000a900463ffffffff166040518663ffffffff1660e01b81526004016114b99594939291906130f7565b602060405180830381600087803b1580156114d357600080fd5b505af11580156114e7573d6000803e3d6000fd5b505050506040513d601f19601f8201168201806040525081019061150b9190612b91565b600d81905550565b600d5481565b6000600660008473ffffffffffffffffffffffffffffffffffffffff1673ffffffffffffffffffffffffffffffffffffffff16815260200190815260200160002060008373ffffffffffffffffffffffffffffffffffffffff1673ffffffffffffffffffffffffffffffffffffffff16815260200190815260200160002060009054906101000a900460ff16905092915050565b6115b561179f565b73ffffffffffffffffffffffffffffffffffffffff166115d3610c14565b73ffffffffffffffffffffffffffffffffffffffff1614611629576040517f08c379a00000000000000000000000000000000000000000000000000000000081526004016116209061336c565b60405180910390fd5b600073ffffffffffffffffffffffffffffffffffffffff168173ffffffffffffffffffffffffffffffffffffffff161415611699576040517f08c379a0000000000000000000000000000000000000000000000000000000008152600401611690906131ac565b60405180910390fd5b6116a281611cc8565b50565b600c81815481106116b557600080fd5b906000526020600020016000915090505481565b60007f01ffc9a7000000000000000000000000000000000000000000000000000000007bffffffffffffffffffffffffffffffffffffffffffffffffffffffff1916827bffffffffffffffffffffffffffffffffffffffffffffffffffffffff1916149050919050565b60008073ffffffffffffffffffffffffffffffffffffffff166003600084815260200190815260200160002060009054906101000a900473ffffffffffffffffffffffffffffffffffffffff1673ffffffffffffffffffffffffffffffffffffffff1614159050919050565b600033905090565b816005600083815260200190815260200160002060006101000a81548173ffffffffffffffffffffffffffffffffffffffff021916908373ffffffffffffffffffffffffffffffffffffffff160217905550808273ffffffffffffffffffffffffffffffffffffffff1661181a83610a22565b73ffffffffffffffffffffffffffffffffffffffff167f8c5be1e5ebec7d5bd14f71427d1e84f3dd0314c0f7b2291e5b200ac8c7c3b92560405160405180910390a45050565b80600c9080519060200190611876929190612630565b505050565b600061188682611733565b6118c5576040517f08c379a00000000000000000000000000000000000000000000000000000000081526004016118bc9061326c565b60405180910390fd5b60006118d083610a22565b90508073ffffffffffffffffffffffffffffffffffffffff168473ffffffffffffffffffffffffffffffffffffffff16148061191257506119118185611519565b5b8061195057508373ffffffffffffffffffffffffffffffffffffffff1661193884610609565b73ffffffffffffffffffffffffffffffffffffffff16145b91505092915050565b8273ffffffffffffffffffffffffffffffffffffffff1661197982610a22565b73ffffffffffffffffffffffffffffffffffffffff16146119cf576040517f08c379a00000000000000000000000000000000000000000000000000000000081526004016119c6906131cc565b60405180910390fd5b600073ffffffffffffffffffffffffffffffffffffffff168273ffffffffffffffffffffffffffffffffffffffff161415611a3f576040517f08c379a0000000000000000000000000000000000000000000000000000000008152600401611a369061322c565b60405180910390fd5b611a4a838383612285565b611a556000826117a7565b6001600460008573ffffffffffffffffffffffffffffffffffffffff1673ffffffffffffffffffffffffffffffffffffffff1681526020019081526020016000206000828254611aa591906135c4565b925050819055506001600460008473ffffffffffffffffffffffffffffffffffffffff1673ffffffffffffffffffffffffffffffffffffffff1681526020019081526020016000206000828254611afc919061353d565b92505081905550816003600083815260200190815260200160002060006101000a81548173ffffffffffffffffffffffffffffffffffffffff021916908373ffffffffffffffffffffffffffffffffffffffff160217905550808273ffffffffffffffffffffffffffffffffffffffff168473ffffffffffffffffffffffffffffffffffffffff167fddf252ad1be2c89b69c2b068fc378daa952ba7f163c4a11628f55a4df523b3ef60405160405180910390a4611bbb83838361228a565b505050565b806010600082815260200190815260200160002060000160019054906101000a900460ff1615611c25576040517f08c379a0000000000000000000000000000000000000000000000000000000008152600401611c1c9061338c565b60405180910390fd5b60016010600084815260200190815260200160002060000160016101000a81548160ff0219169083151502179055503373ffffffffffffffffffffffffffffffffffffffff167f8da60e825eb5c9a7140fdfbf63b1c16c7740afe431d5801d32637e339401c35f83604051611c9a919061342c565b60405180910390a2611cc482604051806080016040528060438152602001613f2b604391396120f7565b5050565b60008060009054906101000a900473ffffffffffffffffffffffffffffffffffffffff169050816000806101000a81548173ffffffffffffffffffffffffffffffffffffffff021916908373ffffffffffffffffffffffffffffffffffffffff1602179055508173ffffffffffffffffffffffffffffffffffffffff168173ffffffffffffffffffffffffffffffffffffffff167f8be0079c531659141344cd1fd0a4f28419497f9722a3daafe3b4186f6b6457e060405160405180910390a35050565b8173ffffffffffffffffffffffffffffffffffffffff168373ffffffffffffffffffffffffffffffffffffffff161415611dfb576040517f08c379a0000000000000000000000000000000000000000000000000000000008152600401611df29061324c565b60405180910390fd5b80600660008573ffffffffffffffffffffffffffffffffffffffff1673ffffffffffffffffffffffffffffffffffffffff16815260200190815260200160002060008473ffffffffffffffffffffffffffffffffffffffff1673ffffffffffffffffffffffffffffffffffffffff16815260200190815260200160002060006101000a81548160ff0219169083151502179055508173ffffffffffffffffffffffffffffffffffffffff168373ffffffffffffffffffffffffffffffffffffffff167f17307eab39ab6107e8899845ad3d59bd9653f200f220920489ca2b5937696c3183604051611eec91906130dc565b60405180910390a3505050565b6001816000016000828254019250508190555050565b600081600001549050919050565b600073ffffffffffffffffffffffffffffffffffffffff168273ffffffffffffffffffffffffffffffffffffffff161415611f8d576040517f08c379a0000000000000000000000000000000000000000000000000000000008152600401611f849061330c565b60405180910390fd5b611f9681611733565b15611fd6576040517f08c379a0000000000000000000000000000000000000000000000000000000008152600401611fcd906131ec565b60405180910390fd5b611fe260008383612285565b6001600460008473ffffffffffffffffffffffffffffffffffffffff1673ffffffffffffffffffffffffffffffffffffffff1681526020019081526020016000206000828254612032919061353d565b92505081905550816003600083815260200190815260200160002060006101000a81548173ffffffffffffffffffffffffffffffffffffffff021916908373ffffffffffffffffffffffffffffffffffffffff160217905550808273ffffffffffffffffffffffffffffffffffffffff16600073ffffffffffffffffffffffffffffffffffffffff167fddf252ad1be2c89b69c2b068fc378daa952ba7f163c4a11628f55a4df523b3ef60405160405180910390a46120f36000838361228a565b5050565b61210082611733565b61213f576040517f08c379a0000000000000000000000000000000000000000000000000000000008152600401612136906132ec565b60405180910390fd5b806007600084815260200190815260200160002090805190602001906121669291906125aa565b505050565b612176848484611959565b6121828484848461228f565b6121c1576040517f08c379a00000000000000000000000000000000000000000000000000000000081526004016121b89061318c565b60405180910390fd5b50505050565b606060405180602001604052806000815250905090565b60606121e982611733565b612228576040517f08c379a000000000000000000000000000000000000000000000000000000000815260040161221f906133ac565b60405180910390fd5b60006122326121c7565b90506000815111612252576040518060200160405280600081525061227d565b8061225c84612426565b60405160200161226d929190613028565b6040516020818303038152906040525b915050919050565b505050565b505050565b60006122b08473ffffffffffffffffffffffffffffffffffffffff16612587565b15612419578373ffffffffffffffffffffffffffffffffffffffff1663150b7a026122d961179f565b8786866040518563ffffffff1660e01b81526004016122fb9493929190613090565b602060405180830381600087803b15801561231557600080fd5b505af192505050801561234657506040513d601f19601f820116820180604052508101906123439190612b37565b60015b6123c9573d8060008114612376576040519150601f19603f3d011682016040523d82523d6000602084013e61237b565b606091505b506000815114156123c1576040517f08c379a00000000000000000000000000000000000000000000000000000000081526004016123b89061318c565b60405180910390fd5b805181602001fd5b63150b7a0260e01b7bffffffffffffffffffffffffffffffffffffffffffffffffffffffff1916817bffffffffffffffffffffffffffffffffffffffffffffffffffffffff19161491505061241e565b600190505b949350505050565b6060600082141561246e576040518060400160405280600181526020017f30000000000000000000000000000000000000000000000000000000000000008152509050612582565b600082905060005b600082146124a05780806124899061375f565b915050600a826124999190613593565b9150612476565b60008167ffffffffffffffff8111156124bc576124bb6138c4565b5b6040519080825280601f01601f1916602001820160405280156124ee5781602001600182028036833780820191505090505b5090505b6000851461257b5760018261250791906135c4565b9150600a8561251691906137a8565b6030612522919061353d565b60f81b81838151811061253857612537613895565b5b60200101907effffffffffffffffffffffffffffffffffffffffffffffffffffffffffffff1916908160001a905350600a856125749190613593565b94506124f2565b8093505050505b919050565b6000808273ffffffffffffffffffffffffffffffffffffffff163b119050919050565b8280546125b6906136fc565b90600052602060002090601f0160209004810192826125d8576000855561261f565b82601f106125f157805160ff191683800117855561261f565b8280016001018555821561261f579182015b8281111561261e578251825591602001919060010190612603565b5b50905061262c919061267d565b5090565b82805482825590600052602060002090810192821561266c579160200282015b8281111561266b578251825591602001919060010190612650565b5b509050612679919061267d565b5090565b5b8082111561269657600081600090555060010161267e565b5090565b60006126ad6126a88461346c565b613447565b905080838252602082019050828560208602820111156126d0576126cf6138f8565b5b60005b8581101561270057816126e68882612881565b8452602084019350602083019250506001810190506126d3565b5050509392505050565b600061271d61271884613498565b613447565b905082815260208101848484011115612739576127386138fd565b5b6127448482856136ba565b509392505050565b600061275f61275a846134c9565b613447565b90508281526020810184848401111561277b5761277a6138fd565b5b6127868482856136ba565b509392505050565b60008135905061279d81613eb7565b92915050565b6000813590506127b281613ece565b92915050565b600082601f8301126127cd576127cc6138f3565b5b81356127dd84826020860161269a565b91505092915050565b6000813590506127f581613ee5565b92915050565b60008135905061280a81613efc565b92915050565b60008151905061281f81613efc565b92915050565b600082601f83011261283a576128396138f3565b5b813561284a84826020860161270a565b91505092915050565b600082601f830112612868576128676138f3565b5b813561287884826020860161274c565b91505092915050565b60008135905061289081613f13565b92915050565b6000815190506128a581613f13565b92915050565b6000602082840312156128c1576128c0613907565b5b60006128cf8482850161278e565b91505092915050565b600080604083850312156128ef576128ee613907565b5b60006128fd858286016127a3565b925050602061290e85828601612881565b9150509250929050565b6000806040838503121561292f5761292e613907565b5b600061293d8582860161278e565b925050602061294e8582860161278e565b9150509250929050565b60008060006060848603121561297157612970613907565b5b600061297f8682870161278e565b93505060206129908682870161278e565b92505060406129a186828701612881565b9150509250925092565b600080600080608085870312156129c5576129c4613907565b5b60006129d38782880161278e565b94505060206129e48782880161278e565b93505060406129f587828801612881565b925050606085013567ffffffffffffffff811115612a1657612a15613902565b5b612a2287828801612825565b91505092959194509250565b60008060408385031215612a4557612a44613907565b5b6000612a538582860161278e565b9250506020612a64858286016127e6565b9150509250929050565b60008060408385031215612a8557612a84613907565b5b6000612a938582860161278e565b925050602083013567ffffffffffffffff811115612ab457612ab3613902565b5b612ac085828601612853565b9150509250929050565b60008060408385031215612ae157612ae0613907565b5b6000612aef8582860161278e565b9250506020612b0085828601612881565b9150509250929050565b600060208284031215612b2057612b1f613907565b5b6000612b2e848285016127fb565b91505092915050565b600060208284031215612b4d57612b4c613907565b5b6000612b5b84828501612810565b91505092915050565b600060208284031215612b7a57612b79613907565b5b6000612b8884828501612881565b91505092915050565b600060208284031215612ba757612ba6613907565b5b6000612bb584828501612896565b91505092915050565b60008060408385031215612bd557612bd4613907565b5b6000612be385828601612881565b925050602083013567ffffffffffffffff811115612c0457612c03613902565b5b612c10858286016127b8565b9150509250929050565b612c23816135f8565b82525050565b612c328161361c565b82525050565b612c4181613628565b82525050565b6000612c52826134fa565b612c5c8185613510565b9350612c6c8185602086016136c9565b612c758161390c565b840191505092915050565b6000612c8b82613505565b612c958185613521565b9350612ca58185602086016136c9565b612cae8161390c565b840191505092915050565b6000612cc482613505565b612cce8185613532565b9350612cde8185602086016136c9565b80840191505092915050565b6000612cf7601a83613521565b9150612d028261391d565b602082019050919050565b6000612d1a603283613521565b9150612d2582613946565b604082019050919050565b6000612d3d602683613521565b9150612d4882613995565b604082019050919050565b6000612d60602583613521565b9150612d6b826139e4565b604082019050919050565b6000612d83601c83613521565b9150612d8e82613a33565b602082019050919050565b6000612da6601883613521565b9150612db182613a5c565b602082019050919050565b6000612dc9602483613521565b9150612dd482613a85565b604082019050919050565b6000612dec601983613521565b9150612df782613ad4565b602082019050919050565b6000612e0f602c83613521565b9150612e1a82613afd565b604082019050919050565b6000612e32603883613521565b9150612e3d82613b4c565b604082019050919050565b6000612e55602a83613521565b9150612e6082613b9b565b604082019050919050565b6000612e78602983613521565b9150612e8382613bea565b604082019050919050565b6000612e9b602e83613521565b9150612ea682613c39565b604082019050919050565b6000612ebe602083613521565b9150612ec982613c88565b602082019050919050565b6000612ee1603183613521565b9150612eec82613cb1565b604082019050919050565b6000612f04602c83613521565b9150612f0f82613d00565b604082019050919050565b6000612f27602083613521565b9150612f3282613d4f565b602082019050919050565b6000612f4a601883613521565b9150612f5582613d78565b602082019050919050565b6000612f6d602f83613521565b9150612f7882613da1565b604082019050919050565b6000612f90602183613521565b9150612f9b82613df0565b604082019050919050565b6000612fb3603183613521565b9150612fbe82613e3f565b604082019050919050565b6000612fd6601383613521565b9150612fe182613e8e565b602082019050919050565b612ff58161365e565b82525050565b6130048161368c565b82525050565b61301381613696565b82525050565b613022816136a6565b82525050565b60006130348285612cb9565b91506130408284612cb9565b91508190509392505050565b60006020820190506130616000830184612c1a565b92915050565b600060408201905061307c6000830185612c1a565b6130896020830184612c1a565b9392505050565b60006080820190506130a56000830187612c1a565b6130b26020830186612c1a565b6130bf6040830185612ffb565b81810360608301526130d18184612c47565b905095945050505050565b60006020820190506130f16000830184612c29565b92915050565b600060a08201905061310c6000830188612c38565b6131196020830187613019565b6131266040830186612fec565b613133606083018561300a565b613140608083018461300a565b9695505050505050565b600060208201905081810360008301526131648184612c80565b905092915050565b6000602082019050818103600083015261318581612cea565b9050919050565b600060208201905081810360008301526131a581612d0d565b9050919050565b600060208201905081810360008301526131c581612d30565b9050919050565b600060208201905081810360008301526131e581612d53565b9050919050565b6000602082019050818103600083015261320581612d76565b9050919050565b6000602082019050818103600083015261322581612d99565b9050919050565b6000602082019050818103600083015261324581612dbc565b9050919050565b6000602082019050818103600083015261326581612ddf565b9050919050565b6000602082019050818103600083015261328581612e02565b9050919050565b600060208201905081810360008301526132a581612e25565b9050919050565b600060208201905081810360008301526132c581612e48565b9050919050565b600060208201905081810360008301526132e581612e6b565b9050919050565b6000602082019050818103600083015261330581612e8e565b9050919050565b6000602082019050818103600083015261332581612eb1565b9050919050565b6000602082019050818103600083015261334581612ed4565b9050919050565b6000602082019050818103600083015261336581612ef7565b9050919050565b6000602082019050818103600083015261338581612f1a565b9050919050565b600060208201905081810360008301526133a581612f3d565b9050919050565b600060208201905081810360008301526133c581612f60565b9050919050565b600060208201905081810360008301526133e581612f83565b9050919050565b6000602082019050818103600083015261340581612fa6565b9050919050565b6000602082019050818103600083015261342581612fc9565b9050919050565b60006020820190506134416000830184612ffb565b92915050565b6000613451613462565b905061345d828261372e565b919050565b6000604051905090565b600067ffffffffffffffff821115613487576134866138c4565b5b602082029050602081019050919050565b600067ffffffffffffffff8211156134b3576134b26138c4565b5b6134bc8261390c565b9050602081019050919050565b600067ffffffffffffffff8211156134e4576134e36138c4565b5b6134ed8261390c565b9050602081019050919050565b600081519050919050565b600081519050919050565b600082825260208201905092915050565b600082825260208201905092915050565b600081905092915050565b60006135488261368c565b91506135538361368c565b9250827fffffffffffffffffffffffffffffffffffffffffffffffffffffffffffffffff03821115613588576135876137d9565b5b828201905092915050565b600061359e8261368c565b91506135a98361368c565b9250826135b9576135b8613808565b5b828204905092915050565b60006135cf8261368c565b91506135da8361368c565b9250828210156135ed576135ec6137d9565b5b828203905092915050565b60006136038261366c565b9050919050565b60006136158261366c565b9050919050565b60008115159050919050565b6000819050919050565b60007fffffffff0000000000000000000000000000000000000000000000000000000082169050919050565b600061ffff82169050919050565b600073ffffffffffffffffffffffffffffffffffffffff82169050919050565b6000819050919050565b600063ffffffff82169050919050565b600067ffffffffffffffff82169050919050565b82818337600083830152505050565b60005b838110156136e75780820151818401526020810190506136cc565b838111156136f6576000848401525b50505050565b6000600282049050600182168061371457607f821691505b6020821081141561372857613727613866565b5b50919050565b6137378261390c565b810181811067ffffffffffffffff82111715613756576137556138c4565b5b80604052505050565b600061376a8261368c565b91507fffffffffffffffffffffffffffffffffffffffffffffffffffffffffffffffff82141561379d5761379c6137d9565b5b600182019050919050565b60006137b38261368c565b91506137be8361368c565b9250826137ce576137cd613808565b5b828206905092915050565b7f4e487b7100000000000000000000000000000000000000000000000000000000600052601160045260246000fd5b7f4e487b7100000000000000000000000000000000000000000000000000000000600052601260045260246000fd5b7f4e487b7100000000000000000000000000000000000000000000000000000000600052602160045260246000fd5b7f4e487b7100000000000000000000000000000000000000000000000000000000600052602260045260246000fd5b7f4e487b7100000000000000000000000000000000000000000000000000000000600052603260045260246000fd5b7f4e487b7100000000000000000000000000000000000000000000000000000000600052604160045260246000fd5b600080fd5b600080fd5b600080fd5b600080fd5b600080fd5b6000601f19601f8301169050919050565b7f52656365697665722063616e6e6f742062652073656e6465722e000000000000600082015250565b7f4552433732313a207472616e7366657220746f206e6f6e20455243373231526560008201527f63656976657220696d706c656d656e7465720000000000000000000000000000602082015250565b7f4f776e61626c653a206e6577206f776e657220697320746865207a65726f206160008201527f6464726573730000000000000000000000000000000000000000000000000000602082015250565b7f4552433732313a207472616e736665722066726f6d20696e636f72726563742060008201527f6f776e6572000000000000000000000000000000000000000000000000000000602082015250565b7f4552433732313a20746f6b656e20616c7265616479206d696e74656400000000600082015250565b7f54686973206973206e6f7420796f757220636f75706f6e210000000000000000600082015250565b7f4552433732313a207472616e7366657220746f20746865207a65726f2061646460008201527f7265737300000000000000000000000000000000000000000000000000000000602082015250565b7f4552433732313a20617070726f766520746f2063616c6c657200000000000000600082015250565b7f4552433732313a206f70657261746f7220717565727920666f72206e6f6e657860008201527f697374656e7420746f6b656e0000000000000000000000000000000000000000602082015250565b7f4552433732313a20617070726f76652063616c6c6572206973206e6f74206f7760008201527f6e6572206e6f7220617070726f76656420666f7220616c6c0000000000000000602082015250565b7f4552433732313a2062616c616e636520717565727920666f7220746865207a6560008201527f726f206164647265737300000000000000000000000000000000000000000000602082015250565b7f4552433732313a206f776e657220717565727920666f72206e6f6e657869737460008201527f656e7420746f6b656e0000000000000000000000000000000000000000000000602082015250565b7f45524337323155524953746f726167653a2055524920736574206f66206e6f6e60008201527f6578697374656e7420746f6b656e000000000000000000000000000000000000602082015250565b7f4552433732313a206d696e7420746f20746865207a65726f2061646472657373600082015250565b7f45524337323155524953746f726167653a2055524920717565727920666f722060008201527f6e6f6e6578697374656e7420746f6b656e000000000000000000000000000000602082015250565b7f4552433732313a20617070726f76656420717565727920666f72206e6f6e657860008201527f697374656e7420746f6b656e0000000000000000000000000000000000000000602082015250565b7f4f776e61626c653a2063616c6c6572206973206e6f7420746865206f776e6572600082015250565b7f436f75706f6e20697320616c7265616479206275726e65640000000000000000600082015250565b7f4552433732314d657461646174613a2055524920717565727920666f72206e6f60008201527f6e6578697374656e7420746f6b656e0000000000000000000000000000000000602082015250565b7f4552433732313a20617070726f76616c20746f2063757272656e74206f776e6560008201527f7200000000000000000000000000000000000000000000000000000000000000602082015250565b7f4552433732313a207472616e736665722063616c6c6572206973206e6f74206f60008201527f776e6572206e6f7220617070726f766564000000000000000000000000000000602082015250565b7f4d617820737570706c7920726561636865642100000000000000000000000000600082015250565b613ec0816135f8565b8114613ecb57600080fd5b50565b613ed78161360a565b8114613ee257600080fd5b50565b613eee8161361c565b8114613ef957600080fd5b50565b613f0581613632565b8114613f1057600080fd5b50565b613f1c8161368c565b8114613f2757600080fd5b5056fe68747470733a2f2f697066732e696f2f697066732f516d51747151596b63545241347577346d4e5156584c58364a58425757636a72544c73354764696747796e556855a2646970667358221220d93ac95ec5382372088a9d8f287d8264ae421966870b8d83fa82c3cc0f44896b64736f6c63430008070033",
  "immutableReferences": {
    "10": [
      {
        "length": 32,
        "start": 1960
      },
      {
        "length": 32,
        "start": 2044
      }
    ]
  },
  "source": "// SPDX-License-Identifier: MIT\npragma solidity ^0.8.7;\n// ganache server\nimport \"@openzeppelin/contracts/token/ERC721/ERC721.sol\";\nimport \"@openzeppelin/contracts/access/Ownable.sol\";\nimport \"@openzeppelin/contracts/utils/Counters.sol\";\nimport \"@openzeppelin/contracts/token/ERC721/extensions/ERC721URIStorage.sol\";\n\nimport \"./VRFv2Consumer.sol\";\n/**\n    Tec Coupons Contract\n    This contract is used to handle a coupon system.\n*/\ncontract Tecoupons is Ownable, ERC721URIStorage, VRFv2Consumer {\n    // Enums\n    enum CouponType{ FIVE, TEN, FIFTEEN }\n    // Events\n    event CreateCoupon(address indexed _from,uint256 tokenId );\n    event RedeemCoupon(address indexed _from,uint256 tokenId );\n    event BurnCoupon(address indexed _from,uint256 tokenId );\n    event TransferCoupon(address indexed _from,address indexed _to,uint256 tokenId );\n    // Coupon IPFS links\n    string constant couponBurntUrl = \"https://ipfs.io/ipfs/QmQtqQYkcTRA4uw4mNQVXLX6JXBWWcjrTLs5GdigGynUhU\";\n    string constant couponFiveUrl = \"https://ipfs.io/ipfs/QmaDmxxzGVrNPJrweRvG7A9xj4xaB6FtoiWxypUQ8FBvmH\";\n    string constant couponTenUrl = \"https://ipfs.io/ipfs/QmeieJuqJ7StYnGn6jD3YLi8FhmGPuPq6hDcwCRWBTBhAu\";\n    string constant couponFifteenUrl = \"https://ipfs.io/ipfs/QmTmsxap3viQe4QGSiJaDgpwYQiRFJubeEss1uGhSufJy6\";\n    // Coupon struct\n    struct Coupon {\n        CouponType discount;\n        bool burned;\n        uint256 id;\n        string couponCode;\n    }\n    // Mappings\n    mapping (uint256 => address) couponIdToOwner;\n    mapping (uint256 => Coupon) couponIdToCoupon;\n    // Token Ids\n    using Counters for Counters.Counter;\n    Counters.Counter private _tokenIds;\n\n    // The max supply is 999\n    uint constant maxSupply = 999;\n    uint counter = 0;\n\n    constructor() ERC721(\"Tecoupon\", \"TEC\") { }\n    /**\n        isNotBurnt modifier\n        checks if the coupon is burnt\n    */\n    modifier isNotBurnt(uint256 tokenId) {\n        require(!couponIdToCoupon[tokenId].burned, \"Coupon is already burned\");\n        _;\n    }\n    /**\n        isCouponOwner modifier\n        checks if the coupon is owned by an address.\n    */\n    modifier isCouponOwner(uint256 tokenId) {\n        require(msg.sender == couponIdToOwner[tokenId], \"This is not your coupon!\");\n        _;\n\n    }\n    /** \n        createCoupon\n        This function transfers a token to an address\n    */\n    function createCoupon(address _to, string memory tokenURI) public onlyOwner() returns (uint256) {\n        require(maxSupply != counter, \"Max supply reached!\");\n        _tokenIds.increment();\n        counter++;\n        uint256 newItemId = _tokenIds.current();\n        _mint(_to, newItemId);\n        _setTokenURI(newItemId, tokenURI);\n        emit CreateCoupon(_to, newItemId);\n                CouponType discount;\n        couponIdToOwner[newItemId] = _to;\n        couponIdToCoupon[newItemId] = Coupon(CouponType.FIVE, false, newItemId, \"testing_code\");\n        return newItemId;\n    }\n    /** \n        transferCoupon\n        This function transfers a token to an address\n    */\n    function transferCoupon(address payable _to, uint256 tokenId) public{\n        require(msg.sender != _to, \"Receiver cannot be sender.\");\n        require(msg.sender != address(0));\n        safeTransferFrom(msg.sender, _to, tokenId);\n        emit TransferCoupon(msg.sender, _to, tokenId);\n    }\n    /**\n        burnCoupon function\n        burns the coupon and sets the new tokenURI\n    */\n    function burnCoupon(uint256 tokenId) private isNotBurnt(tokenId){\n        couponIdToCoupon[tokenId].burned = true;\n        emit BurnCoupon(msg.sender, tokenId);\n        _setTokenURI(tokenId, couponBurntUrl);\n    }\n    /**\n        redeemCoupon function\n        this function is used to redeem and burn the coupon when it is used.\n    */\n    function redeemCoupon(uint256 tokenId) public isNotBurnt(tokenId) onlyOwner(){\n        emit RedeemCoupon(msg.sender, tokenId);\n        burnCoupon(tokenId);\n    }\n    /**\n        getCoupon function\n        returns coupon code\n    */\n    function getCoupon(uint256 tokenId) public view isCouponOwner(tokenId) returns(string memory){\n        return couponIdToCoupon[tokenId].couponCode;\n    }\n\n}\n",
  "sourcePath": "/Users/luisfelipealvarezsanchez/dev/Tecoupon-solidity/contracts/Tecoupons.sol",
  "compiler": {
    "name": "solc",
    "version": "0.8.7+commit.e28d00a7.Emscripten.clang"
  },
  "schemaVersion": "3.4.7",
  "updatedAt": "2022-06-16T22:27:11.851Z",
  "devdoc": {
    "kind": "dev",
    "methods": {
      "approve(address,uint256)": {
        "details": "See {IERC721-approve}."
      },
      "balanceOf(address)": {
        "details": "See {IERC721-balanceOf}."
      },
      "getApproved(uint256)": {
        "details": "See {IERC721-getApproved}."
      },
      "isApprovedForAll(address,address)": {
        "details": "See {IERC721-isApprovedForAll}."
      },
      "name()": {
        "details": "See {IERC721Metadata-name}."
      },
      "owner()": {
        "details": "Returns the address of the current owner."
      },
      "ownerOf(uint256)": {
        "details": "See {IERC721-ownerOf}."
      },
      "renounceOwnership()": {
        "details": "Leaves the contract without owner. It will not be possible to call `onlyOwner` functions anymore. Can only be called by the current owner. NOTE: Renouncing ownership will leave the contract without an owner, thereby removing any functionality that is only available to the owner."
      },
      "safeTransferFrom(address,address,uint256)": {
        "details": "See {IERC721-safeTransferFrom}."
      },
      "safeTransferFrom(address,address,uint256,bytes)": {
        "details": "See {IERC721-safeTransferFrom}."
      },
      "setApprovalForAll(address,bool)": {
        "details": "See {IERC721-setApprovalForAll}."
      },
      "supportsInterface(bytes4)": {
        "details": "See {IERC165-supportsInterface}."
      },
      "symbol()": {
        "details": "See {IERC721Metadata-symbol}."
      },
      "tokenURI(uint256)": {
        "details": "See {IERC721Metadata-tokenURI}."
      },
      "transferFrom(address,address,uint256)": {
        "details": "See {IERC721-transferFrom}."
      },
      "transferOwnership(address)": {
        "details": "Transfers ownership of the contract to a new account (`newOwner`). Can only be called by the current owner."
      }
    },
    "version": 1
  },
  "userdoc": {
    "kind": "user",
    "methods": {
      "createCoupon(address,string)": {
        "notice": "createCoupon This function transfers a token to an address"
      },
      "getCoupon(uint256)": {
        "notice": "getCoupon function returns coupon code"
      },
      "redeemCoupon(uint256)": {
        "notice": "redeemCoupon function this function is used to redeem and burn the coupon when it is used."
      },
      "transferCoupon(address,uint256)": {
        "notice": "transferCoupon This function transfers a token to an address"
      }
    },
    "notice": "Tec Coupons Contract This contract is used to handle a coupon system.",
    "version": 1
  }
}